:020000040800F2
:100000000028002021090008730900087F09000862
:10001000850900088B09000891090008000000000C
:100020000000000000000000000000009709000828
:10003000A309000800000000AF090008FD05000842
:1000400071090008710900087109000871090008A8
:100050007109000871090008710900087109000898
:100060007109000871090008710900087109000888
:100070007109000871090008990700087109000852
:100080007109000871090008710900087109000868
:100090007109000871090008710900087109000858
:1000A0007109000871090008710900087109000848
:1000B00071090008710900080000000071090008BA
:1000C000710900080000000000000000710900082C
:1000D000000000002D040008710900080000000065
:1000E000710900087109000871090008000000008A
:1000F0000000000000000000000000000000000000
:0C01000000000000000000005FF808F1A3
:10010C0010B5054C237833B9044B13B10448AFF345
:10011C0000800123237010BD780000200000000037
:10012C00E813000808B5034B1BB103490348AFF3B0
:10013C00008008BD000000007C000020E8130008CF
:10014C00034613F8012B002AFBD1181A013870470B
:10015C002DE9F04F89B000AF2B4B1B685B88FB83FC
:10016C002A4B3C1D1D460FCD0FC495E8070003C458
:10017C002280274B1B68274A1468274A1568274A90
:10018C001688FA8B520892B29046254AB7F81EE0B0
:10019C00244907F1040C92468B46B4F80090187869
:1001AC00E0B124492DE90F426046D847BDE80F4223
:1001BC0008688007F6D5C86C2AF8190019F10109EE
:1001CC00F14502D14FF0000908E0A4F8009028781E
:1001DC0018B132460132424500D0E0E70D4B1B68A6
:1001EC001B881946104800F027FB104B1B8819463A
:1001FC000B4800F063F80E4800F01EFB00BF2437DC
:10020C00BD46BDE8F08F00BF0C0000204014000874
:10021C00000000200800002004000020AC1000208A
:10022C009C000020450800080014000898000020DD
:10023C00241400080024014080B584B000AF78601D
:10024C0000F03CFB0023FB8109E00C49FB897A6838
:10025C005B001344DB880B60FB890133FB817B68FB
:10026C005B88FA899A42F0D3044B1A687B68C3F80E
:10027C000822012318461037BD4680BD00300240CD
:10028C0080B483B000AF78600B4A0B4B1B6823F033
:10029C0001031360084A7B68D360074B4FF4047268
:1002AC005A60054A044B1B6843F00103136000BFFE
:1002BC000C37BD4680BC70474400024080B584B00A
:1002CC0000AF78600B467B80234B1B78002B3FD014
:1002DC00224B1B684AF655221A80204B1B6845F2AC
:1002EC00AA52A3F80C221D4B1B684FF400625A80D3
:1002FC001A4B1B6820229A80184B1B681846FFF774
:10030C009BFF0023FB810EE0144B1A68FB89F989D3
:10031C0049007868014409885B0013440A46DA8076
:10032C00FB890133FB810D4B1B685B88FA899A4270
:10033C00EAD30A4B1B681846FFF7A2FF074B1B6852
:10034C00074A934201D1074B00E0054B034A136067
:10035C0000BF1037BD4680BD940000200C0000206B
:10036C00B0100020C012002080B400AF00BF0B4BB7
:10037C001B889BB203F08003002BF8D0074BFF22A5
:10038C009A8000BF054B1B889BB203F04003002BE7
:10039C00F8D000BFBD4680BC704700BF003801409C
:1003AC0080B400AF00BF0B4B1B889BB203F08003E3
:1003BC00002BF8D0074B00229A8000BF054B1B88FE
:1003CC009BB203F04003002BF8D000BFBD4680BCAD
:1003DC00704700BF0038014080B500AF00F082FAD2
:1003EC000B4800F029FA0B4800F026FAFFF7B0FE94
:1003FC00094B1B881946084BB3F8FE3F1A460748B1
:10040C0000F01AFA4FF47A7000F000F9EBE700BF35
:10041C005C1400087C1400089C0000209014000858
:10042C0080B582B000AF384B1B889BB203F0200321
:10043C00002B64D0344B9B889BB2FB71334B1B78E5
:10044C00DBB2002B02D0012B4AD058E0FB79312BC8
:10045C000ED12F4B1B68184600F01EF9FFF784FFD6
:10046C002B4B1B681B7819462A4800F0E5F945E030
:10047C00FB79322B0ED1264B1B68184600F04AF93B
:10048C00FFF772FF224B1B681B781946214800F0BE
:10049C00D3F933E0FB79332B05D11C4B01221A70B5
:1004AC00FFF762FF2AE0FB79342B05D1174B0122B1
:1004BC001A70FFF759FF21E0FB79FF2B1ED0FB7957
:1004CC00442B0AD1144B1B881946134BB3F8FE3F2F
:1004DC001A46124800F0B0F910E0FFF761FF0DE08A
:1004EC000F4AFB791370094B00221A700C4B1B78C6
:1004FC00DBB219460B4800F09FF900E000BF00BFCB
:10050C000837BD4680BD00BF003801409C1000205C
:10051C0000000020D01400089C000020901400085B
:10052C009D100020E014000880B483B000AF034697
:10053C00FB71084997F907305B09FA7902F01F0241
:10054C00012000FA02F241F8232000BF0C37BD460F
:10055C0080BC704700E100E080B483B000AF03467C
:10056C003960FB7197F90730002B0BDA0D49FB79D9
:10057C0003F00F03043B3A68D2B21201D2B20B441F
:10058C001A7609E0084997F907303A68D2B2120195
:10059C00D2B20B4483F8002300BF0C37BD4680BC9D
:1005AC00704700BF00ED00E000E100E080B582B0D4
:1005BC0000AF78607B68B3F1807F01D3012311E039
:1005CC000A4A7B6823F07F43013B53600F214FF0B5
:1005DC00FF30FFF7C1FF054B00229A60034B072247
:1005EC001A60002318460837BD4680BD10E000E0B5
:1005FC0080B400AF044B1B680133034A136000BF87
:10060C00BD4680BC704700BFD014002080B483B0BE
:10061C0000AF7860064B00221A6000BF044B1A68CA
:10062C007B689A42FAD300BF0C37BD4680BC70473A
:10063C00D014002080B400AF144A144B5B6843F410
:10064C0000435360114A114B9B6943F4017343F00F
:10065C00010393610E4A0E4B1B6823F00F031360CA
:10066C000C4A0C4B5B6843F480735360094A094B8A
:10067C009B6843F481739360064A064B1B6943F0F5
:10068C000703136100BFBD4680BC704700100240D9
:10069C00000801400024014080B582B000AF7860B2
:1006AC007B681B78002B1ED1154800F0C5F8154A45
:1006BC00144B9B6843F001039360124A114B9B68E7
:1006CC0043F00403936000BF0E4B9B6803F00403DC
:1006DC00002BF9D10B4A0B4B9B6843F00103936041
:1006EC007B6801221A70084800F0A6F8074B1B78AB
:1006FC001946074800F0A0F800BF0837BD4680BD7A
:10070C00FC1400080024014014150008940000207B
:10071C002815000880B483B000AF78607B681B7824
:10072C00012B0ED1094A094B9B6823F001039360FE
:10073C00074A074B1B6823F0010313607B680022F8
:10074C001A7000BF0C37BD4680BC704700240140B6
:10075C004400024080B500AF094A094B5B6943F085
:10076C0001035361074B084A9A60064A054B1B6804
:10077C0043F0320313600E20FFF7D6FE00BF80BD9E
:10078C0000100240440002400438014080B400AF25
:10079C00084B1B68074A074B5B6843F400535360D4
:1007AC00054A054B1B6823F00103136000BFBD46CF
:1007BC0080BC7047000002404400024080B500AF8E
:1007CC001A4A1A4B9B6943F4804343F00503936127
:1007DC00174A174B5B6823F47F635360144A144B1E
:1007EC005B6843F40B635360114A114BDB6843F4B1
:1007FC008063D3600F4B41F64C521A810D4A0D4B5E
:10080C009B899BB243F4005343F02C039BB293811E
:10081C00084A084B9B8A9BB243F080039BB293829D
:10082C002520FFF781FE00BF80BD00BF00100240F5
:10083C0000080140003801400FB490B58FB000AFF4
:10084C0007F14C033B603B1D3A68B96C184600F04D
:10085C00A5F9002387F837301EE000BF164B1B8824
:10086C009BB203F08003002BF8D0134A97F8373073
:10087C0007F138010B4413F8343C9BB2938000BF52
:10088C000D4B1B889BB203F04003002BF8D097F85C
:10089C003730013387F8373097F837403B1D18460F
:1008AC00FFF74EFC03469C42D7D300BF3C37BD46F6
:1008BC00BDE8904004B070470038014080B400AFF0
:1008CC00064A064B5B6943F040035361044B01221B
:1008DC009A6000BFBD4680BC704700BF001002404C
:1008EC000030024080B500AF084B1B68084AA2FBE1
:1008FC0003239B091846FFF759FEFFF79BFEFFF7F2
:10090C0029FFFFF75BFF00BF80BD00BF1000002078
:10091C00D34D6210DFF834D0002103E00C4B5B5850
:10092C00435004310B480C4B42189A42F6D30B4AF5
:10093C0002E0002342F8043B094B9A42F9D300F041
:10094C0037F800F0EFF8FFF747FD7047002800205C
:10095C00801500080000002078000020780000209E
:10096C00D8140020FEE780B400AF00BFBD4680BCA9
:10097C00704780B400AFFEE780B400AFFEE780B4F0
:10098C0000AFFEE780B400AFFEE780B400AF00BF5D
:10099C00BD4680BC704780B400AF00BFBD4680BC74
:1009AC00704780B400AF00BFBD4680BC70470000EC
:1009BC0080B500AF154A154B1B6843F0010313605B
:1009CC001249124B5A68124B13404B600F4A0F4B93
:1009DC001B6823F0847323F4803313600B4A0B4B96
:1009EC001B6823F480231360084A084B5B6823F4CC
:1009FC00FE035360054B4FF41F029A6000F00CF895
:100A0C00044B4FF000629A6000BF80BD00100240A2
:100A1C000000FFF800ED00E080B500AF00F002F838
:100A2C0000BF80BD80B483B000AF00237B60002387
:100A3C003B603A4A394B1B6843F480331360374BA5
:100A4C001B6803F400333B607B6801337B603B68BD
:100A5C00002B03D17B68B3F5A06FF0D12F4B1B6833
:100A6C0003F40033002B02D001233B6001E0002390
:100A7C003B603B68012B4BD1294A294B1B6843F047
:100A8C0010031360264A264B1B6823F003031360E4
:100A9C00234A234B1B6843F0020313601F4A1F4B6E
:100AAC005B6853601D4A1D4B5B6853601B4A1B4BB4
:100ABC005B6843F480635360184A184B5B6823F4FB
:100ACC007C135360154A154B5B6843F4E813536071
:100ADC00124A124B1B6843F08073136000BF0F4B1C
:100AEC001B6803F00073002BF9D00C4A0B4B5B68AE
:100AFC0023F003035360094A084B5B6843F002037D
:100B0C00536000BF054B5B6803F00C03082BF9D155
:100B1C0000BF0C37BD4680BC704700BF00100240C0
:100B2C000020024070B500250C4E0D4CA41BA410E7
:100B3C00A54209D100F052FC00250A4E0A4CA41B18
:100B4C00A410A54205D170BD56F825309847013543
:100B5C00EEE756F8253098470135F2E7781500088E
:100B6C0078150008781500087C15000810B59AB0A7
:100B7C00009104916FF00041029105914FF6FF71C5
:100B8C004FF40274ADF80E106946ADF80C4000F04D
:100B9C006BF80022009B1A701AB010BD13460A465F
:100BAC00014602480068FFF7E1BF00BF14000020B7
:100BBC002DE9F0478E6882469E420C469146984637
:100BCC0035D88A8912F4906F31D0022325680969CF
:100BDC006F1A656905EB450595FBF3F508F1010303
:100BEC003B449D4238BF1D46530531D5294600F084
:100BFC0047FB064650B90C23CAF80030A3894FF0C6
:100C0C00FF3043F04003A381BDE8F0873A462169E9
:100C1C0000F0C4FAA38923F4906343F08003A3810A
:100C2C0026613E44266046466561ED1BA56046453F
:100C3C0028BF464649463246206800F0BAFAA368F7
:100C4C0000209B1BA36023681E442660BDE8F08730
:100C5C002A4600F073FB06460028E1D12169504674
:100C6C0000F0C2FAC7E700002DE9F04F9DB00393E6
:100C7C008B8980461C060D4616460FD50B696BB941
:100C8C00402100F0FDFA2860286128B90C23C8F82F
:100C9C0000304FF0FF30C4E040236B610023099318
:100CAC0020238DF8293030234FF0010B8DF82A309A
:100CBC0037463C4614F8013B002B3CD1B7EB060AF7
:100CCC000BD05346324629464046FFF771FF0130A0
:100CDC0000F0A280099B534409933B78002B00F051
:100CEC009B8000234FF0FF320493079305920693E9
:100CFC008DF853301A9305222178504800F040FAB1
:100D0C00671C049BD8B9D90644BF20228DF8532008
:100D1C001A0744BF2B228DF8532022782A2A16D08A
:100D2C0000210A20079A27463B780134303B092BD7
:100D3C0050D9C9B111E0252BC0D02746B9E73F4A9D
:100D4C003C46801A0BFA00F018430490D3E7039A40
:100D5C00111D12680391002A01DB079204E0524234
:100D6C0043F00203079204933B782E2B0DD17B7832
:100D7C00791C2A2B32D1039B02371A1D1B68039254
:100D8C00002BB8BF4FF0FF3305932D4C032239785D
:100D9C00204600F0F5F938B14023001B03FA00F0AF
:100DAC00049B0137034304933978062225487E1CA3
:100DBC008DF8281000F0E4F9002835D0224BFBB94F
:100DCC00039B073323F0070308330393099B4B441E
:100DDC0009936DE700FB02320121A4E700230A24EA
:100DEC00184605930F463A780131303A092A03D94F
:100DFC00002BCAD00590C8E704FB00200123F1E7C3
:100E0C0003AB00932A46114B04A94046AFF3008074
:100E1C00B0F1FF3F8146D9D1AB895B063FF539AFC5
:100E2C0009981DB0BDE8F08F03AB00932A46074B21
:100E3C0004A9404600F084F8EAE700BF4415000816
:100E4C004A1500084E15000800000000BD0B0008F4
:100E5C002DE9F04791461F468A680B690646934276
:100E6C00B8BF1346C9F8003091F843200C46DDF8A2
:100E7C00208012B10133C9F800302368990642BFB3
:100E8C00D9F800300233C9F80030256815F0060592
:100E9C0007D104F1190AE368D9F800209B1A9D4286
:100EAC002ADB94F843302268003318BF01239206E2
:100EBC002FD404F1430239463046C047013022D0CA
:100ECC002368E56803F00603042B18BF0025D9F846
:100EDC0000204FF0000908BFAD1AA368226908BFB3
:100EEC0025EAE5759342C4BF9B1AED181A344D459B
:100EFC001BD10020BDE8F08701235246394630460D
:100F0C00C047013003D14FF0FF30BDE8F087013509
:100F1C00C1E73020E11881F843005A1C94F84510C1
:100F2C002244023382F84310C3E701232246394698
:100F3C003046C0470130E6D009F10109D7E700007F
:100F4C002DE9F04317460A7E85B06E2A9846064670
:100F5C000C460C9B01F1430E00F0BC801AD8632A9E
:100F6C002ED00AD8002A00F0C880582A00F08A80B7
:100F7C0004F1420584F842202AE0642A01D0692A4F
:100F8C00F6D121681A6811F0800F23D0111D196059
:100F9C00136827E0732A00F0B48008D86F2A2AD08F
:100FAC00702AE5D10A6842F020020A6003E0752A33
:100FBC0021D0782ADCD178226F4984F8452064E06E
:100FCC001A6801F14205111D1960136884F842304A
:100FDC000123A3E011F0400F02F104011960D7D0F6
:100FEC00B2F90030002B03DA2D225B4284F8432047
:100FFC0062490A2217E02068196810F0800F03D0AC
:10100C00081D18600B6806E010F0400F01F1040099
:10101C001860F7D00B886F2A14BF0A220822574990
:10102C00002084F843006568002DA560C0F29C8008
:10103C00206820F004002060002B3FD1002D40F0F0
:10104C0095807546082A0BD12368DA0708D52369E1
:10105C0062689A42DEBF302305F8013C05F1FF358A
:10106C00AEEB05032361CDF800803B4603AA214675
:10107C003046FFF7EDFE013055D14FF0FF3005B093
:10108C00BDE8F08381F845203C492268186812F0CD
:10109C00800F00F104051D6001D0036802E05506C5
:1010AC00FBD50388D00744BF42F0200222601BB955
:1010BC00226822F0200222601022B1E77546B3FBB1
:1010CC00F2F002FB1033CB5C05F8013D034600281F
:1010DC00F5D1B7E708681A6810F0800F496904D099
:1010EC00101D18601368196007E010F0400F02F132
:1010FC00040018601368F6D019800023754623612C
:10110C00B1E71A68111D196015680021626828463C
:10111C0000F036F808B1401B60606368236100235F
:10112C0084F843309FE723692A4639463046C04746
:10113C000130A2D023689B0707D5002504F11909BB
:10114C00E368039A9B1A9D4205DBE068039B984277
:10115C00B8BF184693E701234A4639463046C04784
:10116C0001308AD00135EBE7002BA7D10B7804F1C5
:10117C00420584F8423065E76615000855150008ED
:10118C0010B5C9B202449042034601D1002010BDF3
:10119C001C7801308C42F6D1184610BD10B5431E98
:1011AC000A44914200D110BD11F8014B03F8014FD4
:1011BC00F7E7884210B501EB020303D8421E9942AF
:1011CC000CD110BD9842F9D28118D21AD34200D159
:1011DC0010BD13F8014D01F8014DF7E711F8014B63
:1011EC0002F8014FEBE7000038B50546002943D063
:1011FC0051F8043C0C1F002BB8BFE41800F0D4F8D5
:10120C001E4A1368104633B9636014602846BDE863
:10121C00384000F0CAB8A3420BD921686218934237
:10122C0001BF1A685B685218226063600460EDE7C6
:10123C0013465A680AB1A242FAD919685818A04242
:10124C000BD120680144581882421960DED1106815
:10125C005268014419605A60D8E702D90C232B60FC
:10126C00D4E7206821188A4201BF11685268091816
:10127C00216062605C60C9E738BD00BFA01000202F
:10128C0070B5CD1C25F0030508350C2D38BF0C2589
:10129C00002D064601DBA94203D90C233360002044
:1012AC0070BD00F081F8234A1468214691B9224C94
:1012BC0023681BB9304600F067F820602946304699
:1012CC0000F062F8431C26D10C233046336000F04A
:1012DC006CF8E4E70B685B1B1AD40B2B0FD90B6073
:1012EC00CC18CD50304600F060F804F10B00231DF3
:1012FC0020F00700C31A1BD05A42E25070BD8C423A
:10130C000BBF63684B681360636018BF0C46E9E75A
:10131C000C464968CAE7C41C24F00304A04205D05B
:10132C00211A304600F030F80130CDD02560D9E7D5
:10133C0070BD00BFA0100020A4100020F8B5074617
:10134C0014460E4621B91146BDE8F840FFF798BF88
:10135C0022B9FFF749FF25462846F8BD00F026F8CC
:10136C0084420FD921463846FFF78AFF05460028EC
:10137C00F2D031462246FFF711FF31463846FFF7CF
:10138C0033FFE9E73546E7E738B50023054C05465A
:10139C000846236000F014F8431C02D1236803B103
:1013AC002B6038BDD41400207047704751F8040CE2
:1013BC000028A0F10400BCBF0B58C01870470000F7
:1013CC00044B0246196809B90349196018680244AC
:1013DC001A607047A8100020D8140020F8B500BF80
:1013EC00F8BC08BC9E467047F8B500BFF8BC08BCFA
:0413FC009E46704752
:1014000053616D706C696E672066696E697368659B
:10141000642C2066696E616C20696E6465783A2080
:1014200025640A005472616E736D697373696F6E1F
:101430002046696E69736865642121210A0D0000E8
:10144000496E7369646520776169745F41646320E4
:101450006C6F6F702121210A0D00000050657269C8
:1014600070686572616C7320496E697469616C693A
:101470007A65642121210A0D0000000053616D701E
:101480006C696E67204C6F6F702121210A0D00007E
:1014900056616C7565206F6620666972737420658D
:1014A0006C656D656E743A203078253032580A0DBF
:1014B00056616C7565206F66206C61737420656C75
:1014C000656D656E743A203078253032580A0D000B
:1014D00056616C7565206F662025640A0D0000005A
:1014E00054726967676572204C6576656C20726519
:1014F0006365697665643A2025640000496E736906
:101500006465204144432053544152542121210A0F
:101510000D00000045786974696E672041444320DE
:1015200053544152540A0D0056616C7565206F6624
:10153000206B65657053616D706C696E673A20252C
:10154000640A0D00232D302B2000686C4C0065666A
:101550006745464700303132333435363738394104
:10156000424344454600303132333435363738391A
:0815700061626364656600001E
:041578003101000835
:04157C000D01000855
:10158000940000209E10002096000020B010002043
:1015900000A24A0418000020000000000000000023
:1015A000000000000000000000000000000000003B
:1015B000000000000000000000000000000000002B
:1015C000000000000000000000000000000000001B
:1015D000000000000000000000000000000000000B
:1015E00000000000000000000000000000000000FB
:0815F0000000000000000000F3
:0400000508000921C5
:00000001FF
